:100000000000042071030000590300005B0300009E
:100010005D0300005F0300006103000000000000BA
:10002000000000000000000000000000630300006A
:1000300065030000000000006703000071C70000B6
:1000400089B900006B0300006D6B00006B030000BA
:100050006B0300006B0300006B030000056F0000E2
:100060006B030000ED7A00006B0300006B030000DF
:100070006B0300006B0300006B0300006B030000C8
:100080006B0300006B0300006B0300006B030000B8
:100090006B0300006B0300006B0300006B030000A8
:1000A0006B0300006B0300006B0300006B03000098
:1000B0006B0300006B030000000000000000000064
:1000C0006B0300006B0300006B0300006B03000078
:1000D0006B0300006B0300006B030000B59E000083
:1000E000E95E00006B0300006B03000000000000ED
:1000F000000000006B030000000000006B03000024
:1001000000000000000000000000000000000000EF
:1001100000000000000000000000000000000000DF
:1001200000000000000000000000000000000000CF
:1001300000000000000000000000000000000000BF
:1001400000000000000000000000000000000000AF
:10015000000000000000000000000000000000009F
:10016000000000000000000000000000000000008F
:10017000000000000000000000000000000000007F
:10018000000000000000000000000000000000006F
:10019000000000000000000000000000000000005F
:1001A000000000000000000000000000000000004F
:1001B000000000000000000000000000000000003F
:1001C000000000000000000000000000000000002F
:1001D000000000000000000000000000000000001F
:1001E000000000000000000000000000000000000F
:1001F00000000000000000000000000000000000FF
:10020000344935480A1A02D0072291438D463349B2
:1002100033480A1A06D00722914381F30988022243
:1002200082F314882F483049304A00F041F83048B2
:100230003049314A00F03CF830483149314A00F049
:1002400037F831483149324A00F032F83148324902
:10025000324A00F02DF832483249334A00F028F88B
:1002600032483349334A00F023F8334833490022F7
:1002700000F029F832483349002200F024F83248CF
:100280003249091A13F0ACF9314A90471F48204906
:10029000884205D00268043003B4904703BCF7E7F6
:1002A00000208646EC46002000212A4A9047FEE7BF
:1002B000884207D0521A05D0037801300B70013103
:1002C000013AF9D17047884202D002700130FAE752
:1002D000704700000000042000E00320000004201C
:1002E00000000420B058010000000020640100203C
:1002F000CC030000CC03000034360100B0580100EC
:1003000000000020000000203436010034360100D7
:100310003436010034360100343601003436010031
:100320003436010034360100B0580100145A01007F
:10033000640100206401002064010020C41D00202D
:10034000C41D0020D01D0020D01D0020D03D002065
:100350009903000097B90000FEE7FEE7FEE7FEE71D
:10036000FEE7FEE7FEE7FEE7FEE7FEE700F002B885
:10037000FFF7FCBF0F484FF00701884385460E4842
:1003800080470E48016841F470010160BFF34F8F50
:10039000BFF36F8FFFF734BF09480A490A4A884202
:1003A00007D0521A05D0037801300B700131013AA1
:1003B000F9D170470000042019BE000088ED00E06C
:0C03C00034360100000000200000002086
:1003CC0000487047BC1D002086B00390029101923A
:1003DC0001238DF817309DF81730214A039B1360C9
:1003EC001F4A029B53601E4A019B9360039B44F27D
:1003FC000102934213D0039B44F20202934221D197
:10040C00019B174AD360164BDB681B881A46144BAA
:10041C009A61134BDB685B68114AD36112E0019B54
:10042C000F4A13610E4B1B699B680D4A53610C4BB1
:10043C001B691B680A4A9361094B1B695B68084A74
:10044C00D36100BF72B600BF00BF9DF81730DBB29E
:10045C00002BFAD162B600BF00BF06B0704700BFD8
:10046C006401002000B583B002900091019244F227
:10047C00010071466A4600F003F803B000BD00BFEE
:10048C0000B587B003900291019272B600BF039B36
:10049C0044F20102934207D0039B44F202029342BE
:1004AC0005D1019B059303E0019B049300E000BF81
:1004BC00074B1B6803F00103002B00D000BE019A10
:1004CC0002990398FFF780FF00BF07B05DF804FBAB
:1004DC00F0ED00E082B003468DF807309DF907304F
:1004EC00002B0BDA0B4A9DF8073003F00F03043B8B
:1004FC0013441B7EDBB25B09DBB208E0064A9DF9B4
:10050C000730134493F80033DBB25B09DBB21846B7
:10051C0002B0704700ED00E000E100E072B600BFF1
:10052C00034B1B680133024A136000BF704700BFC6
:10053C0084010020064B1B68013B054A1360044BE9
:10054C001B68002B01D162B600BF00BF704700BF13
:10055C008401002000B583B0019000F025F803461B
:10056C00012B03D00449432000F057F8FFF7D6FFC6
:10057C0000BF03B05DF804FB3436010000B583B056
:10058C0003468DF8073000F00FF80346012B03D01B
:10059C000449512000F041F8FFF7CCFF00BF03B035
:1005AC005DF804FB3436010084B0EFF3058301934E
:1005BC00019BC3F308030393039B002B0DD1EFF3B3
:1005CC0014830093009B0293029B03F00103002B06
:1005DC000CBF01230023DBB200E00123184604B05A
:1005EC00704700B585B0EFF305830193019BC3F30E
:1005FC0008030393039B002B0AD0039B103B02932D
:10060C00029B5BB21846FFF765FF0346DBB200E0C6
:10061C000F23184605B05DF804FB00B585B0034602
:10062C000091ADF80630BDF80630ADF80830009BEF
:10063C00039302AB1A46002144F20200FFF720FF9D
:10064C0000BF05B05DF804FB10B487B001900091B9
:10065C00019B009A53E8004F104643E8000191F0CB
:10066C00000FF7D1059404900391059B184607B031
:10067C005DF8044B704710B487B001900091019B5A
:10068C00009A53E8004F04EA020043E8000191F09D
:10069C00000FF6D1059404900391059B184607B002
:1006AC005DF8044B704710B487B001900091019B2A
:1006BC00009A53E8004F04EB020043E8000191F06C
:1006CC00000FF6D1059404900391049B184607B0D3
:1006DC005DF8044B704710B487B001900091019BFA
:1006EC00009A53E8004F94422CBFA01A204643E8CE
:1006FC00000191F0000FF4D1059404900391049B38
:10070C00184607B05DF8044B704700B583B00190F4
:10071C0000210198FFF7AFFF0346184603B05DF8C0
:10072C0004FB000000B587B00390029113468DF8CE
:10073C00073000230593039B1B781A46114B9B5CD7
:10074C00002B09D0039B04339DF80720029918460F
:10075C0005F0BAF805900FE0039B1B781A46094B7D
:10076C009B5C002B08D1039B0C339DF8072002994E
:10077C00184605F0DBFE0590059B184607B05DF8A2
:10078C0004FB00BF2804002000B585B001900023B5
:10079C008DF80F30019B1B781A46114B9B5C002B7C
:1007AC0008D0019B0433184605F056F903468DF822
:1007BC000F300EE0019B1B781A46094B9B5C002BFB
:1007CC0007D1019B0C33184605F038FF03468DF812
:1007DC000F309DF80F30184605B05DF804FB00BFD4
:1007EC002804002000B587B00390029113468DF8C1
:1007FC00073000230593039B1B781A46114B9B5C17
:10080C00002B09D0039B04339DF80720029918464E
:10081C0005F03AF905900FE0039B1B781A46094B3B
:10082C009B5C002B08D1039B0C339DF8072002998D
:10083C00184605F05BFF0590059B184607B05DF860
:10084C0004FB00BF2804002084B00190019B9B682E
:10085C000393019BDA68039BD31A184604B07047C4
:10086C0000B587B001900091019B1B78022B45D0FD
:10087C00022B6ADC002B52D0012B66D1019B1B7A18
:10088C00002B05D1012233493348FFF7ABFF5DE064
:10089C00019B5B681B781946304800F0DCF9059029
:1008AC00059B002B0AD001238DF80C30059B04937B
:1008BC002B4B1B6803AA104698470DE02748FFF7FF
:1008CC00C3FF0346002B07D000238DF80C30244BBC
:1008DC001B6803AA104698472048FFF7B5FF03464C
:1008EC001E4A9288934205D801221A491A48FFF7EA
:1008FC0079FF2BE01B4B01221A7027E002238DF8A5
:10090C000C30019BDB680493012212491248FFF75B
:10091C0069FF134B1B6803AA1046984716E012494F
:10092C00124800F0B3F90346002B05D101220E4901
:10093C000948FFF7F7FE09E003238DF80C30084B4C
:10094C001B6803AA1046984700E000BF00BF07B021
:10095C005DF804FB900100200000002094010020B1
:10096C0088010020910100208C010020A4010020AE
:10097C0030B591B00390029101928DF803303C4A4E
:10098C00019B1360029B002B01D107236DE0029B9E
:10099C001968029B5B689BB21A46364800F02FF927
:1009AC000F900F9B0E930E9B002B01D00E9B5CE0C7
:1009BC00029B9968029BDB689BB21A462E4800F09A
:1009CC001EF90F900F9B0D930D9B002B01D00D9BCF
:1009DC004BE02A4B04AC1D460FCD0FC495E80F001D
:1009EC0084E80F00039B5B690A93039B1B7C002B21
:1009FC0014BF01230023DBB28DF824309DF80330A3
:100A0C008DF82C30039B5B7C002B01D00E2300E077
:100A1C0000238DF82530039BDB680693039B9B68B2
:100A2C000793039B1B680593039B5B68049304ABC0
:100A3C00134A1946134804F0C3FB0F900F9B0C93F9
:100A4C000C9B002B01D00C9B0FE00F4B00221A705B
:100A5C00039B1B68B3F1FF3F06D001220B490948E9
:100A6C00FFF7C0FE034600E00023184611B030BD6E
:100A7C008801002094010020A4010020B836010058
:100A8C006D08000000000020910100209001002062
:100A9C0000B587B00190019B002B03D11449CA20EB
:100AAC00FFF7BBFD134B1B788DF8173001991248DB
:100ABC0000F0ECF804909DF81730002B12D00D4B81
:100ACC0000221A7001220D490D48FFF78BFE03908E
:100ADC00039B0293029B002B04D0054AD62102985B
:100AEC00FFF7C0FC049B184607B05DF804FB00BF81
:100AFC00D8360100910100209401002090010020C3
:100B0C000000002000B585B003468DF807309DF835
:100B1C0007301946104800F09EF80390039B002BF9
:100B2C0015D10E48FFF730FE034683F00103DBB20C
:100B3C00002B0CD00A49084800F0A8F80346002BFB
:100B4C0005D1012206490548FFF7ECFD0390039BF4
:100B5C00184605B05DF804FBA4010020000000203D
:100B6C008C01002084B00190019B9B680393019B36
:100B7C00DA68039BD31A184604B0704782B0019010
:100B8C000B468DF80330019B1A68019BDB680199B9
:100B9C0089880B4013449DF803201A70019BDB6875
:100BAC005A1C019BDA6000BF02B0704784B00390FE
:100BBC000B460192ADF80A30039B1A68039B9968A7
:100BCC00BDF80A300B44039989880B4013441A78FA
:100BDC00019B1A7000BF04B0704700B583B0019040
:100BEC000091009A00210198FFF7E0FF019B9B68A0
:100BFC005A1C019B9A6000BF03B05DF804FB84B0E3
:100C0C00039002911346ADF80630029B002B01D1E4
:100C1C000E231DE0BDF80630002B07D0BDF80630C2
:100C2C005A1EBDF806301340002B01D009230FE0EB
:100C3C00039B029A1A60BDF80630013B9AB2039BE3
:100C4C009A80039B00229A60039B0022DA600023A7
:100C5C00184604B0704700B583B001900B468DF870
:100C6C0003300198FFF77EFF0246019B9B889A4256
:100C7C0007D89DF8033019460198FFF77FFF002332
:100C8C0000E00423184603B05DF804FB00B583B004
:100C9C00019000910198FFF765FF0346002B05D0EA
:100CAC0000990198FFF799FF002300E005231846EF
:100CBC0003B05DF804FB0000024BD3F88034DBB2C8
:100CCC001846704700700240024BD3F88434DBB2F4
:100CDC00184670470070024008B509F0CBFA0023A3
:100CEC00184608BD00B585B003468DF807300B4695
:100CFC008DF8063013468DF805309DF8073003F05B
:100D0C001F029DF806305B0103F060031A439DF847
:100D1C000530DB01DBB213430393039BFF2B04D998
:100D2C0005494FF4AC70FFF778FC039BDBB2184617
:100D3C0005B05DF804FB00BF5837010082B001908C
:100D4C00019B1B7A184602B07047000000B585B0B5
:100D5C0001900B468DF80330019B002B04D10F49F9
:100D6C004FF48870FFF759FC0198FFF7E7FF034633
:100D7C001A469DF80330934201D3002309E0019BEE
:100D8C00093303939DF8032013465B001344039A25
:100D9C001344184605B05DF804FB00BFDC370100B6
:100DAC0082B00190019B1B78184602B0704782B04C
:100DBC000190019B5B78184602B0704700B585B076
:100DCC0001900B468DF80330019B002B04D10D498B
:100DDC0040F24310FFF721FC019B5B789DF8032048
:100DEC009A4201D3002309E0019B9B781A46019B90
:100DFC00134403939DF80330039A1344184605B02B
:100E0C005DF804FBDC37010082B00190019B1B787C
:100E1C00184602B0704782B00190019B1B681846BF
:100E2C0002B0704700B583B00190019B002B04D138
:100E3C00064940F24320FFF7F0FB0198FFF7EBFF68
:100E4C0003461B68184603B05DF804FB64380100C8
:100E5C0000B583B00190019B002B04D1064940F2F0
:100E6C005F20FFF7DAFB0198FFF7D5FF03465B68BD
:100E7C00184603B05DF804FB6438010000B583B07C
:100E8C000190019B002B04D1064940F27B20FFF717
:100E9C00C4FB0198FFF7BFFF03465B68184603B01D
:100EAC005DF804FB64380100014B1846704700BF25
:100EBC00B83A01004FF08043D3F8383418467047E5
:100ECC0008B5FFF7F7FF034603F00103002B14BF2F
:100EDC0001230023DBB2184608BD08B5FFF7EAFF73
:100EEC00034603F00203002B14BF01230023DBB2E3
:100EFC00184608BD00B583B001900091019B002BF2
:100F0C0004D1114940F20F10FFF787FB019B5B687E
:100F1C00002B04D10C494FF48870FFF77EFB019B2A
:100F2C005B681B68002B04D1074940F21110FFF7D6
:100F3C0074FB019B5B681B680099019898470346FA
:100F4C00184603B05DF804FBE038010000B583B02F
:100F5C0001900091019B002B04D1114940F2191012
:100F6C00FFF75BFB019B1B68002B04D10C494FF472
:100F7C008D70FFF752FB019B1B689B68002B04D103
:100F8C00074940F21B10FFF748FB019B1B689B684D
:100F9C00009A52881046984700BF03B05DF804FBD6
:100FAC00E038010000B583B001900B468DF803309A
:100FBC00074B1B68002B06D0054B1B689DF80320C4
:100FCC0011460198984700BF03B05DF804FB00BFC1
:100FDC007403002000B583B003468DF80730074B2F
:100FEC005B68002B05D0054B5B689DF8072010460D
:100FFC00984700BF03B05DF804FB00BF74030020EA
:10100C0010B58EB0039001930B468DF80B30134640
:10101C008DF80A300023099300230D9302E00D9BF9
:10102C0001330D93039B5B685C6809A801230022C4
:10103C000399A0470346002BF1D100238DF82330F0
:10104C0000230C9300238DF82F30002306934FE0E0
:10105C00039B5B685C680DF1230206A801230399CE
:10106C00A047039B5B685C680DF1170206A801237F
:10107C000399A0479DF817309DF80B209A4227D171
:10108C009DF82F209DF80A309A421CD19DF82330F0
:10109C001A46109B1A60019B5A1C01929DF8232042
:1010AC001A70019B5A1C01929DF80B201A70039B1D
:1010BC005B685C689DF82330023B06A8019A039993
:1010CC00A047002319E09DF82F3001338DF82F3005
:1010DC00039B5B685C689DF82330023B06A80022EA
:1010EC000399A0479DF823301A460C9B13440C938C
:1010FC000C9A0D9B9A42ABD3052318460EB010BD2B
:10110C0000B585B003468DF807309DF90730002BEC
:10111C0014DA9DF8073003F00F038DF80E309DF8AC
:10112C000E30082B04D911494FF4CC70FFF775FA27
:10113C009DF80E30DB000E4A134413E09DF8073087
:10114C0003F00F038DF80F309DF80F30082B04D9E6
:10115C0006494FF4CF70FFF760FA9DF80F30DB00B3
:10116C00044A1344184605B05DF804FBE03801004E
:10117C00D40200201C03002000B583B003468DF878
:10118C0007309DF807301846FFF7BAFF03461B6877
:10119C00184603B05DF804FB00B585B0034600911A
:1011AC008DF807309DF807301846FFF7A9FF03901C
:1011BC00039B009A1A60009B002B10D19DF80730FE
:1011CC00002B03D09DF80730802B04D108494FF435
:1011DC00E170FFF722FA039B00225A6004E0009BA7
:1011EC005B681A68039B5A6000BF05B05DF804FB8E
:1011FC00E038010000B583B00190064B5B68054AEE
:10120C0012680199104698470346184603B05DF8DA
:10121C0004FB00BF1C03002000B589B00190019BAA
:10122C000793079B1B78052B1AD1FFF74DFD03463F
:10123C008DF81730FFF740FD03468DF8163000226D
:10124C0000210020FFF74EFD03461A469DF816308C
:10125C00934205D19DF81730052B01D1334B0793E1
:10126C00079B1B78002B27D100F040FF069007E06E
:10127C0007990698FFF76AFE0698FFF7FFFD0690A0
:10128C00069B002BF4D10020FFF764F9284B1B6858
:10129C00002B03D1079B5A88264B1A800121244826
:1012AC00FFF701FA0020FFF769F901210798FFF712
:1012BC0079FE1F4B1B6835E01F4A02AB19461046DE
:1012CC0003F05EFE0490049B002B2BD0049A079B2A
:1012DC001B6813600020FFF73DF9164B1A88144B5E
:1012EC001B689BB2D31A9BB201339AB2049BDA806F
:1012FC0000210F48FFF7A8F903469AB2049B9A8085
:10130C000020FFF73BF90C4A02AB1946104603F0DC
:10131C0050FE03468DF80F309DF80F301946079894
:10132C00FFF740FE09B05DF804FB00BF683901000F
:10133C00CC020020D0020020BC02002000B583B0FB
:10134C0003468DF807309DF80730022B0ED0022B88
:10135C0010DC002B02D0012B04D00BE00A48FFF765
:10136C005BFF0DE00948FFF757FF09E00848FFF75E
:10137C0053FF05E0074940F26220FFF74EF900BF2A
:10138C0000BF03B05DF804FB5C390100603901005B
:10139C0064390100E038010000B583B00190019878
:1013AC00FFF73AFF00BF03B05DF804FB00B583B054
:1013BC0003468DF807309DF80730002B04D0064902
:1013CC0040F27B20FFF729F90448FFF725FF00BF07
:1013DC0003B05DF804FB00BFE03801006C3901007C
:1013EC0082B003468DF807309DF80730082B27D8BC
:1013FC0001A252F823F000BF291400002D140000A4
:10140C003114000035140000391400003D140000A4
:10141C00411400004514000049140000002310E0A2
:10142C0000230EE001230CE000230AE0002308E077
:10143C00012306E0012304E0012302E0012300E084
:10144C000023184602B0704782B003468DF807306F
:10145C009DF80730082B27D801A252F823F000BFC3
:10146C009114000095140000991400009D140000C4
:10147C00A1140000A5140000A9140000AD14000074
:10148C00B1140000002310E000230EE001230CE057
:10149C0000230AE0002308E0002306E0002304E018
:1014AC00002302E0012300E00023184602B070473D
:1014BC00014B1B78184670477003002010B582B0A2
:1014CC0003468DF807309DF807301846FFF788FF64
:1014DC0003461C461C4B1B781846FFF781FF03463E
:1014EC009C420DD09DF807301846FFF779FF034654
:1014FC00002B03D0154809F0FFFE01E009F04CFF6A
:10150C009DF807301846FFF79FFF03461C460E4B0D
:10151C001B781846FFF798FF03469C420CD09DF8A9
:10152C0007301846FFF790FF0346002B02D009F056
:10153C00ABF801E009F09EF8034A9DF807301370F0
:10154C0000BF02B010BD00BF7003002014000020CB
:10155C0000B587B001900B468DF8033013468DF81B
:10156C0002300198FFF7EAFB03461A469DF8033058
:10157C00934204D91B4940F2F920FFF74EF89DF82D
:10158C000230002B01D0072328E09DF803301946C8
:10159C000198FFF7DBFB04900498FFF708FC034667
:1015AC008DF80F3000238DF8173010E09DF81730B0
:1015BC0019460498FFF702FC0290029B1B78184610
:1015CC0000F05CFD9DF8173001338DF817309DF855
:1015DC0017209DF80F309A42E8D30023184607B025
:1015EC005DF804FBE038010000B587B001900B46B4
:1015FC008DF803300198FFF7A1FB03461A469DF8BE
:10160C000330934204D919494FF44670FFF705F89B
:10161C009DF8033019460198FFF798FB0490049845
:10162C00FFF7C5FB03468DF80F3000238DF81730FC
:10163C0010E09DF8173019460498FFF7BFFB029095
:10164C00029B1B78184600F037FD9DF817300133CC
:10165C008DF817309DF817209DF80F309A42E8D37B
:10166C0000BF00BF07B05DF804FB00BFE03801000D
:10167C0000B589B0019009F081FD0346002B04D11F
:10168C00484940F23130FEF7C8FF474808234FF471
:10169C008472464903F041FC0690069B002B01D056
:1016AC0003237BE0424808F061FD0690069B002B6B
:1016BC0001D0069B72E03F4B00221A703E4B002279
:1016CC001A603E4B00221A60482200213C4810F060
:1016DC00A1F9482200213B4810F09CF9019B002BFA
:1016EC0009D1394B00221A60374B00225A60364B15
:1016FC0000221A7204E0344B019A07CA83E80700EF
:10170C00002009F0B9FE0690069B002B08D0069B22
:10171C00852B05D0234A40F25F310698FEF7A2FED6
:10172C00FFF7C2FB059000238DF81F3018E0002353
:10173C008DF81E3007E00398FFF766FB034605990A
:10174C001846FFF729FD9DF81E305A1C8DF81E20F7
:10175C0019460498FFF732FB0390039B002BEAD148
:10176C009DF81F305A1C8DF81F2019460598FFF75D
:10177C00EDFA0490049B002BD9D10B238DF8083083
:10178C0002AB19460598FFF7B5FB0690069B002B9C
:10179C0003D0FFF7A1FA069B00E00023184609B01E
:1017AC005DF804FBE0380100BC020020B40100200D
:1017BC00A5130000700300206403002068030020C0
:1017CC00D40200201C0300207403002000B583B059
:1017DC0008F0B6FE034683F00103DBB2002B04D104
:1017EC0008F0BAFE0346002B01D008230FE00A488C
:1017FC0009F064FE0190019B0093009B002B05D027
:10180C00064A40F2C2310098FEF72CFE002318461F
:10181C0003B05DF804FB00BF70390100E038010033
:10182C0008B508F03FFD00BF08BD000008B508F082
:10183C009FFE034683F00103DBB2002B04D1044965
:10184C0040F2D130FEF7E9FE08F0FEFD00BF08BD06
:10185C00E038010008B508F07FFE0346002B0DD1DF
:10186C000D494FF47670FEF7D8FE07E0FFF728FB22
:10187C00034683F00103DBB2002B0BD1FFF72DFBEA
:10188C00034683F00103DBB2002BEFD10348FFF7D3
:10189C00C3FC00E000BF08BDE03801007439010052
:1018AC0000B583B082238DF8043001AB1846FFF7E6
:1018BC00B3FC00BF03B05DF804FB000000B587B0BB
:1018CC000190DD4B1B68002B04D1DC4940F2254014
:1018DC00FEF7A3FEFEF785FE0346052B04D8D74979
:1018EC0040F22C40FEF799FE019B1B78852B00F2F1
:1018FC006A8201A252F823F01D1C00007B1C000020
:10190C00091D00009D1C0000CD1C0000311D0000B5
:10191C00411D0000D31D0000A91D0000B71D0000D3
:10192C00C51D0000D31D0000D31D0000D31D0000F9
:10193C00D31D0000231D0000D31D0000D31D00008B
:10194C00D31D0000D31D0000D31D0000D31D0000CB
:10195C00D31D0000D31D0000D31D0000D31D0000BB
:10196C00D31D0000D31D0000D31D0000D31D0000AB
:10197C00D31D0000D31D0000D31D0000D31D00009B
:10198C00D31D0000D31D0000D31D0000D31D00008B
:10199C00D31D0000D31D0000D31D0000D31D00007B
:1019AC00D31D0000D31D0000D31D0000D31D00006B
:1019BC00D31D0000D31D0000D31D0000D31D00005B
:1019CC00D31D0000D31D0000D31D0000D31D00004B
:1019DC00D31D0000D31D0000D31D0000D31D00003B
:1019EC00D31D0000D31D0000D31D0000D31D00002B
:1019FC00D31D0000D31D0000D31D0000D31D00001B
:101A0C00D31D0000D31D0000D31D0000D31D00000A
:101A1C00D31D0000D31D0000D31D0000D31D0000FA
:101A2C00D31D0000D31D0000D31D0000D31D0000EA
:101A3C00D31D0000D31D0000D31D0000D31D0000DA
:101A4C00D31D0000D31D0000D31D0000D31D0000CA
:101A5C00D31D0000D31D0000D31D0000D31D0000BA
:101A6C00D31D0000D31D0000D31D0000D31D0000AA
:101A7C00D31D0000D31D0000D31D0000D31D00009A
:101A8C00D31D0000D31D0000D31D0000D31D00008A
:101A9C00D31D0000D31D0000D31D0000D31D00007A
:101AAC00D31D0000D31D0000D31D0000D31D00006A
:101ABC00D31D0000D31D0000D31D0000D31D00005A
:101ACC00D31D0000D31D0000D31D0000D31D00004A
:101ADC00D31D0000D31D0000D31D0000D31D00003A
:101AEC00D31D0000D31D0000D31D0000D31D00002A
:101AFC00D31D0000D31D00009B1B00001D1B00000C
:101B0C00611B0000CF1B0000EF1B0000391D000003
:101B1C004B48FFF76FFB4A4800F072FB0D20FFF7B4
:101B2C0059FA00F091FC01F098FB464B1B68002B16
:101B3C0003D1454B1B7A002B01D0012300E000237D
:101B4C0003F00103DBB2184608F09EFC0120FFF7FE
:101B5C00B5FC45E100F078FC08F0CEFC0020FFF766
:101B6C00ADFC3A4800F04CFB3848FFF743FB0E2025
:101B7C00FFF730FAFFF79CFC03461846FFF730FCE2
:101B8C000346002B00F0258109F006FC21E1FFF74C
:101B9C008FFC0346072B0ED0072B10DC052B02D035
:101BAC00062B04D00BE00220FFF788FC08E008208D
:101BBC00FFF784FC04E00220FFF780FC00E000BF8C
:101BCC000EE1FFF775FC0346032B40F0048108F08F
:101BDC00E3FC0346002B00F0FE800420FFF76EFCB4
:101BEC00F9E0FFF765FC0346032B07D108F0D4FCA2
:101BFC000346002B02D00420FFF760FC08F0FCFC2D
:101C0C000346002B00F0E9800620FFF757FCE4E0C8
:101C1C00FFF74EFC0346032B04D0FFF749FC0346A9
:101C2C00082B02D10A48FFF749FE0020FFF7D2F932
:101C3C0000F056FA059016E064030020E03801002D
:101C4C007839010068030020740300207C390100FE
:101C5C008039010001990598FFF74CF9039005981C
:101C6C00FFF7F6F80590059B002BF3D1B8E000F0D8
:101C7C00EBFB01F0E9FA0220FFF720FC0120FFF753
:101C8C00A9F90198FFF7B6FA019800F0B9FAA7E0A4
:101C9C00FFF70EFC0346082B05D10220FFF70EFCC4
:101CAC0008F0FCFC02E00520FFF708FC0320FFF71E
:101CBC0091F90198FFF79EFA019800F0A1FA8FE0D4
:101CCC000320FFF787F94848FFF794FA464800F0DD
:101CDC0097FAFFF7EDFB0346062B02D0082B04D036
:101CEC0007E00720FFF7EAFB07E00220FFF7E6FB1F
:101CFC0003E00220FFF7E2FB72E071E00320FFF744
:101D0C00DDFB0220FFF766F9019800F079FA0198E3
:101D1C00FFF770FA64E00F20FFF75CF9019800F010
:101D2C006FFA5DE00198FFF765FA59E00198FFF74B
:101D3C0061FA55E0019B9B781846FFF7E1F9049096
:101D4C00049B1B68002B04D1284940F20250FEF77B
:101D5C0064FC049B5B68002B04D1244940F20350C3
:101D6C00FEF75BFC049B5B68049A126801991046B1
:101D7C0098470346002B32D0019B9B7803F00F034E
:101D8C00002B2CD0019B9B7803F00803002B26D151
:101D9C00019B9B78184608F0C2FE20E00820FFF754
:101DAC0019F9019800F02CFA1AE00920FFF712F942
:101DBC00019800F025FA13E00A20FFF70BF90198BF
:101DCC0000F01EFA0CE0094940F22650FEF725FC03
:101DDC0006E000BF04E000BF02E000BF00E000BF6F
:101DEC0000BF07B05DF804FB84390100E038010046
:101DFC0000B583B000230193354B1B68002B07D132
:101E0C00344B3549184603F0E8F80346304A136062
:101E1C002F4B1B68002B32D02D4B1B689B88002B43
:101E2C001ED02B4B1B68DB88B3F5006F03D3284BFC
:101E3C001B680022DA80264B1B68DA88511C89B299
:101E4C00D9801346ADF80630214B1B689A88013AAD
:101E5C0092B29A8001AB1846FFF730FD012333E0B4
:101E6C001B4B1B681846FFF729FD1A4B1A491846DD
:101E7C0003F0CCF8164B00221A60012324E0174B18
:101E8C001B68002B1FD00020FEF764FB144B1B8833
:101E9C00B3F5006F02D3124B00221A80104B1B8833
:101EAC005A1C91B20E4A1180ADF8063001210B4834
:101EBC00FEF711FC0020FEF761FB01AB1846FFF7A3
:101ECC00FDFC012300E00023184603B05DF804FB81
:101EDC0080030020BC02002084030020CC020020E0
:101EEC00D002002000B589B00190019B002B04D1D9
:101EFC005A4940F26A50FEF790FB019B5B68002B3D
:101F0C0004D1564940F26B50FEF787FB019B5B688E
:101F1C001B68002B04D1514940F26C50FEF77DFB3D
:101F2C000198FEF778FF03461B68002B04D04B4941
:101F3C0040F26D50FEF771FB08F00EFB034683F088
:101F4C000103DBB2002B04D008F0FAFA0346002B95
:101F5C0004D1424940F27150FEF75FFB00238DF82B
:101F6C001F301CE000238DF81E300BE00398FEF7A9
:101F7C004BFF03461846FFF7FFF80346002B01D032
:101F8C00112367E09DF81E305A1C8DF81E2019464F
:101F9C000598FEF713FF0390039B002BE6D19DF8E9
:101FAC001F305A1C8DF81F2019460198FEF7CEFEE3
:101FBC000590059B002BD5D100238DF81F3018E020
:101FCC0000238DF81D3007E00498FEF71DFF034633
:101FDC0001991846FFF7E0F89DF81D305A1C8DF852
:101FEC001D2019460598FEF7E9FE0490049B002B72
:101FFC00EAD19DF81F305A1C8DF81F201946019804
:10200C00FEF7A4FE0590059B002BD9D1144B06932B
:10201C0010E0069B1B68019A9A4204D10F4940F2CA
:10202C009750FEF7FAFA069B1B681846FEF7F3FE6C
:10203C0003460693069B1B68002BEAD1069B019A6C
:10204C001A600B238DF8083002AB19460198FEF785
:10205C0051FF0346184609B05DF804FBE038010057
:10206C0064030020044B1B78002B14BF01230023B6
:10207C00DBB21846704700BF7103002000B583B077
:10208C0003468DF807309DF8073003F00803002B4A
:10209C0009D19DF80730184608F089FD9DF80730E6
:1020AC00184608F04EFD9DF80730184608F074FBF2
:1020BC0000BF03B05DF804FB00B583B003468DF898
:1020CC0007309DF80730184608F0B6FB00BF03B088
:1020DC005DF804FB014B1B68184670476403002035
:1020EC00014B1B681846704768030020014B1B68A6
:1020FC00184670476C03002000B587B0034600916A
:10210C008DF80730FFF7E6FF059031E00598FEF7F4
:10211C0015FE03468DF8123000238DF813301DE0A8
:10212C009DF8133019460598FEF710FE039003989E
:10213C00FEF736FE03461A469DF80730934208D147
:10214C00009B002B03D0009B9DF813201A70059B5D
:10215C0012E09DF8133001338DF813309DF81320E5
:10216C009DF812309A42DBD30598FEF75BFE059082
:10217C00059B002BCAD10023184607B05DF804FB61
:10218C0000B585B003900B4601928DF80B30019988
:10219C000398FEF7AFFE0346184605B05DF804FB46
:1021AC0000B585B0034600918DF807309DF90730D6
:1021BC00002B05DA9DF8073003F00F03082B09DD1F
:1021CC009DF90730002B16DB9DF8073003F00F0349
:1021DC00082B10DC9DF807301846FEF791FF0346DC
:1021EC001B680393039B002B05D000990398FEF703
:1021FC0081FE034600E01023184605B05DF804FB91
:10220C0000B585B00190FFF765FF039007E00199D9
:10221C000398FEF76FFE0398FEF704FE0390039BF2
:10222C00002BF4D100BF00BF05B05DF804FB00B576
:10223C0085B0019006230293FFF74CFF03900BE04F
:10224C0001990398FEF756FE0290029B062B07D1CC
:10225C000398FEF7E7FD0390039B002BF0D100E001
:10226C0000BF029B184605B05DF804FB00B583B0B7
:10227C00034600918DF807309DF80730184608F09A
:10228C0078FA034683F00103DBB2002B01D008235C
:10229C000CE0084B1B78022B01D0082306E09DF8BC
:1022AC0007300099184608F0E7FA0346184603B0C1
:1022BC005DF804FB7003002000B583B00346009169
:1022CC008DF807309DF80730184608F052FA03468F
:1022DC0083F00103DBB2002B01D008230CE0084B88
:1022EC001B78022B01D0082306E09DF807300099DB
:1022FC00184608F08FFB0346184603B05DF804FB44
:10230C007003002000B585B001900B468DF80330AA
:10231C0013468DF8023006230393019B5B689B6880
:10232C00002B09D0019B5B689B689DF802209DF8EF
:10233C000310019898470390039B062B08D19DF836
:10234C0002209DF8033019460198FFF701F903901C
:10235C00039B184605B05DF804FB00B583B00190F3
:10236C000B468DF80330019B5B68DB68002B07D0B4
:10237C00019B5B68DB689DF8032011460198984728
:10238C009DF8033019460198FFF72EF900BF03B0F2
:10239C005DF804FB00B585B001900B468DF8033059
:1023AC0000238DF80F30019B5B681B69002B0AD052
:1023BC00019B5B681B699DF80320114601989847A7
:1023CC0003468DF80F309DF80F30184605B05DF8B8
:1023DC0004FB000000B585B0FFF77CFE039028E0FD
:1023EC000398FEF7ABFC03468DF80A3000238DF8FA
:1023FC000B3014E09DF80B30002219460398FFF7C0
:10240C0081FF0190019B002B04D00E4940F26A70B1
:10241C00FEF703F99DF80B3001338DF80B309DF866
:10242C000B209DF80A309A42E4D30398FEF7FAFC8D
:10243C000390039B002BD3D100BF00BF05B05DF808
:10244C0004FB00BFE038010000B583B0FFF742FE8B
:10245C0001901EE00198FEF771FC03468DF80230E6
:10246C0000238DF803300AE09DF8033019460198DB
:10247C00FFF773FF9DF8033001338DF803309DF89F
:10248C0003209DF802309A42EED30198FEF7CAFC65
:10249C000190019B002BDDD100BF00BF03B05DF8A4
:1024AC0004FB82B00190019B03F1804303F51C33C4
:1024BC00184602B0704700B583B003468DF807305C
:1024CC009DF807301846FFF7ECFF034601221A600F
:1024DC00BFF36F8F00BFBFF34F8F00BF00BF03B0C0
:1024EC005DF804FB044B1B68082B0CBF0123002375
:1024FC00DBB21846704700BF3001001008B5FFF77B
:10250C00F1FF0346002B05D0054B1B68002B01D0B7
:10251C00012300E0002303F00103DBB2184608BDE1
:10252C003401001008B5FFF7DDFF0346002B09D07E
:10253C00FFF7E4FF034683F00103DBB2002B01D06D
:10254C00012300E0002303F00103DBB2184608BDB1
:10255C0082B003468DF807309DF8073003F01F0357
:10256C00DBB2184602B0704782B003468DF80730D4
:10257C009DF807305B0903F00303DBB2184602B089
:10258C00704782B003468DF807309DF80730DB09A1
:10259C00DBB2184602B0704782B00190019B1B7AE7
:1025AC00184602B0704782B00190019B1B68184618
:1025BC0002B0704700B583B00190019B002B04D191
:1025CC00064940F24320FEF728F80198FFF7EBFF8D
:1025DC0003461B68184603B05DF804FB88390100FC
:1025EC0082B00190019B1B78184602B07047000026
:1025FC0000B583B003468DF807300E4B1B789DF861
:10260C0007209A4211D00B4A9DF8073013709DF8A1
:10261C000730052B06D0084B1B7823F00203DAB2E7
:10262C00054B1A700548FFF749F900BF03B05DF878
:10263C0004FB00BF8803002089030020D83A010066
:10264C00014B1B7818467047880300204FF08043DD
:10265C00D3F8383403F00103002B14BF01230023FB
:10266C00DBB2184670470000024B00221A6000BF14
:10267C00704700BFD003002000B585B003468DF82D
:10268C0007300B4B1B680393039B002B0AD0FFF7FF
:10269C00EBFF074B59689DF80720039B10469847A2
:1026AC00034600E00E23184605B05DF804FB00BF9E
:1026BC00D0030020044B1B68002B14BF0123002304
:1026CC00DBB21846704700BFD003002082B003462F
:1026DC0000918DF807300023184602B070470000B7
:1026EC0010B58EB003900291019201238DF8373012
:1026FC00029B0993099B5B68002B15D1099B1B68F6
:10270C001846FFF757FF0346002B0DD1099B9B681A
:10271C00002B09D100238DF83730039B00221A605F
:10272C00039B00225A60AAE0019B402B04D9564916
:10273C0040F29710FDF771FF00230C9300238DF8E6
:10274C002B3008F0D3F90890099BDB68019A93426F
:10275C0028BF13460B9386E0099B9B680B9A934208
:10276C0028BF13460793099B5B68002B0CD0089A73
:10277C000C9BD018099B5B68079A19460FF014F94B
:10278C00099B00225A6014E0099B9B68002B10D017
:10279C00099B1B685B685C68099B03F11000099B33
:1027AC001968089A0C9B1A44079BA04701238DF8C3
:1027BC002B30099B9A68079BD21A099B9A60099B3C
:1027CC00DA68079BD21A099BDA600B9A079BD31A1B
:1027DC000B930C9A079B13440C93099B9B68002B3F
:1027EC000BD19DF82B30002B07D0099B1B6818468A
:1027FC00FFF7E0FE0246099B1A60099BDB68002B81
:10280C0003D100238DF837302DE0099B9B68002BFA
:10281C0029D1099B1B68002B0DD1099B00225A6002
:10282C000C9B002B24D00C9A019B9A4220D20023A3
:10283C008DF837301CE00023059304E0099B9B685E
:10284C005A1C099B9A60099B1B685B685C68099B16
:10285C00196805A801230022A0470346002BEDD1DF
:10286C00099B00221A610B9B002B7FF475AF00E0D3
:10287C0000BF039B089A1A60039B0C9A5A609DF840
:10288C00373018460EB010BD043A010000B587B0C1
:10289C000190019B5B781846FFF766FE0346002B00
:1028AC0001D006237FE0019B5B798DF81730FFF791
:1028BC00C7FE03468DF81630019B9B78032B29D05D
:1028CC00032B6ADC002B02D0012B42D065E09DF873
:1028DC001630052B05D09DF8173003F00F03002B95
:1028EC0016D103AB184600F02DFD04909DF817305F
:1028FC00184608F049F903469AB2049B1A80019BCA
:10290C00013302220499184600F0B0FC03464AE059
:10291C00082348E09DF8173003F00803002B3ED144
:10292C00019BB3F803309BB2002B38D19DF81630C5
:10293C00052B05D09DF8173003F00F03002B06D1A3
:10294C009DF81730184608F0EAF800232BE008230E
:10295C0029E09DF8173003F00803002B21D1019BCF
:10296C00B3F803309BB2002B1BD19DF81630052B0E
:10297C0005D09DF8173003F00F03002B0BD19DF8F9
:10298C001730184608F013F99DF81730184608F060
:10299C00D8F8002307E0082305E000BF02E000BFE1
:1029AC0000E000BF0623184607B05DF804FB00B535
:1029BC008BB003900B4601928DF80B30019B5B782A
:1029CC001846FFF7D1FD0346002B01D006236AE021
:1029DC00FFF736FE03468DF82730019B5B781846CF
:1029EC00FFF7CFFD0346012B3BD1019B9B78002BBE
:1029FC0002D00A2B17D055E09DF82730052B01D0BB
:102A0C00082350E006AB184600F09CFC0790079B8F
:102A1C0000221A80019B013302220799184600F00C
:102A2C0025FC03463FE09DF82730052B01D00823F9
:102A3C0039E005AB184600F085FC08909DF80B308A
:102A4C0019460398FFF7A6FC03461A46089B1A7012
:102A5C00019B013301220899184600F007FC03463C
:102A6C0021E0019B9B780B2B1BD19DF82730052B6C
:102A7C0001D0082317E0019BB3F803309BB2FF2B66
:102A8C0001D907230FE0019BDB788DF826309DF8E8
:102A9C0026209DF80B3019460398FFF733FC0346AC
:102AAC0001E000BF062318460BB05DF804FB0000E4
:102ABC0000B585B00190009102AB184600F042FCC5
:102ACC000390029B012B04D8184940F29520FDF786
:102ADC00A4FD0222002103980EF09CFFC02303F0FA
:102AEC004003002B06D0039B1B7843F00103DAB2A2
:102AFC00039B1A700E4B1B785B08DBB203F00103CF
:102B0C00002B06D0039B1B7843F00203DAB2039B25
:102B1C001A70009B013302220399184600F0A6FBA1
:102B2C000346184605B05DF804FB00BF043A0100EB
:102B3C008903002010B58EB001900091009B1B7989
:102B4C00032B00F0BC80032B00F3E780012B02D099
:102B5C00022B11D0E1E0009BB3F807309BB2002BA5
:102B6C0001D10023DBE0009B013312226D49184692
:102B7C0000F07CFB0346D2E0009BB3F807309BB21D
:102B8C00002B01D10023CAE0009BB3F807309BB2A5
:102B9C00092B28BF09239BB2069309230D9300230D
:102BAC008DF83330FFF796FA0B9037E00B9B5B6890
:102BBC00002B04D15C4940F2C720FDF72EFD0B9B86
:102BCC005B685B68002B04D157494FF43270FDF7FA
:102BDC0024FD00230A930023029302E00A9B013395
:102BEC000A930B9B5B685C6802A8012300220B997B
:102BFC00A0470346002BF1D10D9A0A9B13440D9369
:102C0C000B98FFF7C9FC03461A469DF83330134462
:102C1C008DF833300B98FFF7CDFC0B900B9B002BF2
:102C2C00C4D104AB184600F08DFB0590049B069AAA
:102C3C009A4204D93C4940F2DD20FDF7EEFC069A9D
:102C4C003A4905980EF0B0FE059B9DF833201A7199
:102C5C000D9B9AB2059B5A80FFF704FA0346002B92
:102C6C0006D0059BDB7943F02003DAB2059BDA71C1
:102C7C00FFF730FA03462E4A13602D4A059B53602A
:102C8C002B4A069B9360009BB3F807309BB21A4605
:102C9C00274BDA600020FDF75DFC26498020FFF70A
:102CAC000BFB0990099B002B04D12349802000F0D9
:102CBC002BFB09900020FDF761FC099B2FE0009B8A
:102CCC00B3F807309BB2002B01D1002327E0009B07
:102CDC00DB788DF82330009B5A799B791B021343C8
:102CEC00ADF82030BDF820209DF823301146184651
:102CFC0000F0E0FB0790079B002B01D106230EE0B0
:102D0C00009B5C1C0798FFF76BFC03461A4607995F
:102D1C00204600F0ABFA034601E000BF062318463C
:102D2C000EB010BD843A0100043A0100983A01003B
:102D3C00E4030020D03A0100C83A010000B587B086
:102D4C000190009103AB184600F0FCFA0590FFF7D8
:102D5C0077FC03468DF813309DF81330052B03D107
:102D6C00059B01221A7009E09DF81330042B03D146
:102D7C00059B00221A7001E0062307E0009B01333B
:102D8C0001220599184600F071FA0346184607B05F
:102D9C005DF804FB00B585B001900091FFF750FC85
:102DAC0003468DF80F309DF80F30052B05D09DF89C
:102DBC000F30042B01D0082316E0009BDB78002B8E
:102DCC0005D1FFF741FB0420FFF712FC0BE0009B41
:102DDC00DB78012B05D1FFF7FDFA0520FFF708FC86
:102DEC0001E0072300E00023184605B05DF804FB62
:102DFC0000B583B001900091019B002B04D1504988
:102E0C0040F25E30FDF709FC009B002B04D14C49CD
:102E1C0040F25F30FDF701FC009B5B781846FFF732
:102E2C00A3FB0346002B01D0062385E0009B5B78B7
:102E3C001846FFF7A6FB0346012B1FD1009B9B787E
:102E4C00082B12D0082B16DC002B02D0062B06D038
:102E5C0011E000990198FFF72BFE03466CE00099F6
:102E6C000198FFF767FE034666E000990198FFF7AB
:102E7C0065FF034660E000BF06235DE0009B9B7886
:102E8C00013B082B52D801A252F823F0FB2E000074
:102E9C00392F0000C92E0000392F0000BD2E000074
:102EAC00392F0000392F0000392F00002D2F000082
:102EBC00234940F28230FDF7B0FB3CE0009BB3F8B5
:102ECC0003309BB2012B33D1FFF7CCF8034683F0D0
:102EDC000103DBB2002B01D00F232DE0194B1B7823
:102EEC0043F00203DAB2174B1A70002324E0009B64
:102EFC00B3F803309BB2012B1CD1FFF7B3F8034698
:102F0C0083F00103DBB2002B01D00F2314E00D4B37
:102F1C001B7823F00203DAB20A4B1A7000230BE081
:102F2C0000990198FFF736FF034605E000BF02E069
:102F3C0000BF00E000BF0623184603B05DF804FB99
:102F4C00043A01008903002000B58BB001900623E0
:102F5C00099305238DF8103004AB0133184607F0A4
:102F6C0035FEFFF7A7FBFFF77FFB9DF811301846E6
:102F7C00FFF7EEFA0346032B63D801A252F823F0B5
:102F8C009D2F0000BB2F00000930000043300000D3
:102F9C0004AB19460198FFF72BFF0990099B062BF0
:102FAC0051D104AB1846FFF742F909904BE09DF85C
:102FBC0015308DF822300DF10F029DF8223011469C
:102FCC001846FFF799F80790079B002B02D11023A6
:102FDC0009933AE09DF80F3004AA19460798FFF7B9
:102FEC00CFF80990099B062B2FD19DF80F3004AA1E
:102FFC0019460798FFF7DBFC099026E00623099396
:10300C009DF815308DF823309DF8233003F00F0315
:10301C00002B07D004AA9DF8233011461846FFF761
:10302C00BFF80990099B062B11D104AB1846FFF78A
:10303C002DFC09900BE004AB1846FFF7F8F809904B
:10304C0006E000BF04E000BF02E000BF00E000BFEC
:10305C00099B002B0FD1FFF72DFB0346002B07D04C
:10306C0007F00CFE0346002B07D107F0D9FD04E056
:10307C0007F0F8FD01E007F0FBFD099B18460BB0CB
:10308C005DF804FB00B585B0019000910623039315
:10309C00009B1B780E2B25DC002B40F3C580013BDD
:1030AC000D2B00F2C18001A252F823F0F730000082
:1030BC00FF30000005310000353200004B310000BC
:1030CC00CD310000353200003532000035320000C1
:1030DC0035320000553100006F3100008F31000097
:1030EC00AD310000852B1DD09EE00320FFF780FA48
:1030FC00A1E0002303939EE05148FDF706FB034635
:10310C00002B02D05C20FFF7D6F9FFF799FA0346A3
:10311C00002B04D14B494FF48760FDF77EFA002356
:10312C00039388E0FFF78CFA03468DF80B309DF87B
:10313C000B30032B7AD10420FFF75AFA76E0019872
:10314C00FFF702FF039076E0FFF77AFA0346002BB5
:10315C0004D03C4940F24C40FDF75FFA0023039346
:10316C0069E0FFF76DFA0346012B04D0354940F2B4
:10317C005240FDF752FA0020FFF73AFA002303936E
:10318C0059E0FFF763FA0346002B03D00220FFF748
:10319C002FFA02E00120FFF72BFA002303934AE0F9
:1031AC00FFF74EFA0346012B04D8264940F266403D
:1031BC00FDF733FA0120FFF71BFA002303933AE0E3
:1031CC00009BDB78032B33D0009B9B78002B08D023
:1031DC00009B9B78802B04D01A4940F27440FDF779
:1031EC001CFA009BDB781846FFF746FA0390039B0A
:1031FC00002B16D1FFF75EFA0346002B06D0009B7E
:10320C009B78002B16D107F00BFD13E0FFF78AF922
:10321C00034683F00103DBB2002B0BD007F022FD39
:10322C0008E007F025FD05E000BF04E000BF02E068
:10323C0000BF00E000BF039B184605B05DF804FB1F
:10324C008C030020043A010008B50020FEF716FF9D
:10325C008020FEF713FF00BF08BD08B50020FEF765
:10326C002BFF8020FEF728FF00BF08BD00B58DB0F6
:10327C00039002910192039BDB889BB20A93019A03
:10328C000A9B934228BF13460993019A0A9B9A42C0
:10329C000ED2802007F05CFA03461A46019BB3FB62
:1032AC00F2F101FB02F29B1A002B01D1012300E089
:1032BC0000238DF823309DF8233003F001038DF8A3
:1032CC002330029B0593099B06939DF823300793AB
:1032DC000020FDF73FF905AB19468020FEF7C6FF2D
:1032EC000B900B9B002B04D10649802000F00CF8AE
:1032FC000B900020FDF742F90B9B18460DB05DF8C2
:10330C0004FB00BFC83A010000B583B0034600912E
:10331C008DF8073007F0B2FC03461A469DF80730CB
:10332C00934201D0102306E0054B009A92E803006B
:10333C0083E803000023184603B05DF804FB00BFCC
:10334C00D003002082B00190019B002B02D0019B86
:10335C0040221A60014B184602B0704790030020BF
:10336C0000B585B00190002303930BE0019A039BF9
:10337C0013441978094A039B13440A461A70039B99
:10338C000133039301980EF0DFFA0246039B93423C
:10339C00ECD300BF00BF05B05DF804FBFC030020BC
:1033AC0000B589B04FF08053D3F8A8309BB26FEAC8
:1033BC0083436FEA9343ADF81E304FF08053D3F83C
:1033CC00A4300693BDF81E2002A8069B009313465A
:1033DC00054A0D210EF08AFC02AB1846FFF7C0FF20
:1033EC0000BF09B05DF804FBDC3A010000B587B002
:1033FC0003460A468DF807301346ADF804309DF8A5
:10340C000720BDF804302949134451F823301B78A8
:10341C00002B09D19DF80720BDF804302349134433
:10342C0051F8233002333DE00020FFF78BFF03906F
:10343C0000238DF817309DF80720BDF804301B4988
:10344C00134451F82330049318E09DF817301E2BC9
:10345C0003D91749E620FDF7E0F89DF81730013342
:10346C008DF81730049B19789DF817305B00039A80
:10347C0013448AB21A80049B01330493049B1B7877
:10348C00002BE2D19DF8173001339BB25B009BB24D
:10349C001BB2DBB21BB243F440731BB29AB2039B58
:1034AC001A80039B184607B05DF804FB1C00002033
:1034BC00543B010000B585B003460A468DF8073031
:1034CC001346ADF804309DF80730002B05D10021D0
:1034DC000020FFF78BFF03462AE000238DF80F3006
:1034EC009DF80730052B01D9002321E09DF807300A
:1034FC00114AD35C8DF80E309DF80E30002B01D1A3
:10350C00002315E09DF80E209DF80F300B49134455
:10351C0051F82330002B01D1002309E09DF80F3026
:10352C009AB29DF80E3011461846FFF75FFF03461E
:10353C00184605B05DF804FBE83A01001C000020B9
:10354C0082B003468DF807309DF8073003F01F0357
:10355C00DBB2184602B0704782B003468DF80730D4
:10356C009DF807305B0903F00303DBB2184602B089
:10357C00704782B003468DF807309DF80730DB09A1
:10358C00DBB2184602B0704782B00190019B1B7AE7
:10359C00184602B07047000000B585B001900B468C
:1035AC008DF80330019B002B04D10F494FF4887028
:1035BC00FDF733F80198FFF7E7FF03461A469DF82D
:1035CC000330934201D3002309E0019B0933039399
:1035DC009DF8032013465B001344039A13441846CA
:1035EC0005B05DF804FB00BF143C010082B00190F3
:1035FC00019B1B78184602B0704782B00190019B6A
:10360C005B78184602B0704700B585B001900B4648
:10361C008DF80330019B002B04D10D4940F243106F
:10362C00FCF7FBFF019B5B789DF803209A4201D3CA
:10363C00002309E0019B9B781A46019B13440393DA
:10364C009DF80330039A1344184605B05DF804FB4B
:10365C00143C010082B00190019B1B78184602B00B
:10366C00704782B00190019B184602B07047000071
:10367C0000B583B00190019B002B03D1044952206B
:10368C00FCF7CBFF019B184603B05DF804FB00BFB1
:10369C00503C010000B583B00190019B002B03D17D
:1036AC0009495F20FCF7B9FF019B1B68002B03D174
:1036BC0005496020FCF7B1FF019B1B680C331846D1
:1036CC0003B05DF804FB00BF503C010000B585B0B1
:1036DC0001900B468DF803300198FFF7C9FF03905A
:1036EC00039BDB69002B06D0039BDB699DF8032051
:1036FC0011460198984700BF05B05DF804FB00B572
:10370C0085B0019000210198FFF746FF039000213E
:10371C000398FFF779FF02900298FFF79BFF03468F
:10372C00184605B05DF804FB00B585B00190012189
:10373C000198FFF731FF039000210398FFF764FF16
:10374C0002900298FFF786FF0346184605B05DF815
:10375C0004FB00B585B0019001210198FFF71CFF17
:10376C00039001210398FFF74FFF02900298FFF797
:10377C0071FF0346184605B05DF804FB00B589B02F
:10378C0003900291029B5B781846FFF7D9FE034623
:10379C00012B28D1029B9B78062B24D10023059367
:1037AC0004AB1846FFF7CEFD0790029B1979029BDC
:1037BC00DA7805AB0093079B0398FDF721FC069084
:1037CC00069B052B0FD0059B3F2B03D90849C9201D
:1037DC00FCF723FF029B0133059A07991846FFF764
:1037EC0045FD034600E00623184609B05DF804FBCE
:1037FC00503C010082B00190009100BF0623184696
:10380C0002B0704700B585B0019000910198FFF7A8
:10381C002FFF03900398FFF73DFF0290009B9B78CE
:10382C00212B11D1009BB3F807309BB2072B01D091
:10383C0006230BE0009B581C029B0C3307221946F5
:10384C00FFF714FD034601E000BF0623184605B040
:10385C005DF804FB00B585B0034600918DF8073088
:10386C009DF80730002B01D0032316E0009B039337
:10387C000398FFF70FFF0290029B1B78202B0BD1B4
:10388C00029B03F10C00029B0233072219460EF037
:10389C008BF800BF002300E00623184605B05DF846
:1038AC0004FB000000B58BB0019000910198FFF76C
:1038BC00DFFE08900898FFF7EDFE0790009B9A78C2
:1038CC00079B1A70009BB3F807309BB2DAB2079BC8
:1038DC005A70079B02330493079B5B780593002374
:1038EC0006930020FCF736FE04AB19460020FEF7C9
:1038FC00BDFC0990099B002B09D1094B0293089B35
:10390C00039302AB19460020FFF7FEFC0990002040
:10391C00FCF734FE099B18460BB05DF804FB00BFA6
:10392C006138000000B585B001900198FFF7A0FE4A
:10393C0003900398FFF7AEFE0290029B00229A823E
:10394C00029B00229A61029B00221A62029B0022B7
:10395C00DA66029B00221A67029B00225A67029BBE
:10396C0000229A67029B03F12802029B9A6600BF11
:10397C0005B05DF804FB00B587B00190009101988B
:10398C00FFF776FE05900598FFF784FE0490009BE8
:10399C009B78202B04D0222B10D000BF06237BE079
:1039AC00009BB3F807309BB2072B01D0062373E0C2
:1039BC0000990198FFF776FF03466DE0009BB3F882
:1039CC0007309BB2002B01D0062365E0049B9B8A39
:1039DC0003F00103002B14BF012300238DF80F30DB
:1039EC00009BB3F803309AB2049B9A82049B9B8A87
:1039FC0003F00103002B14BF012300238DF80E30BC
:103A0C009DF80F209DF80E309A4201D1002343E01F
:103A1C009DF80E30002B01D0022300E003238DF81B
:103A2C000D309DF80D3019460198FFF74FFE9DF8AB
:103A3C000E3083F00103DBB2002B2CD00198FFF782
:103A4C0073FE03468DF80C309DF80C30184605F0CB
:103A5C0039FC0198FFF77DFE03468DF80C309DF87C
:103A6C000C30184605F02EFC049B00229A61049B36
:103A7C0000221A62049B0022DA66049B00221A6759
:103A8C00049B00225A67049B00229A67049B03F153
:103A9C002802049B9A660023184607B05DF804FBC5
:103AAC0000B583B001900091019B002B04D12449F7
:103ABC004FF4E470FCF7B1FD009B002B04D12049BE
:103ACC0040F2C910FCF7A9FD009B5B781846FFF784
:103ADC0050FD0346012B16D1009B5B781846FFF76F
:103AEC003BFD0346002B02D0012B06D022E00099AF
:103AFC000198FFF743FE03461DE000990198FFF77C
:103B0C0081FE034617E0009B5B781846FFF724FD07
:103B1C000346002B02D0012B06D00BE00099019834
:103B2C00FFF768FE034606E000990198FFF723FFB4
:103B3C00034600E00623184603B05DF804FB00BF03
:103B4C00503C010086B00390029101920093029BBD
:103B5C000593039B009A5A60059BDB69009A9A4275
:103B6C001DD8059B9A69039B1A60059B9A69009B5B
:103B7C001A44059B9A61059B1A6F009B1A44059B7E
:103B8C001A67059BDA69009BD21A059BDA61059BC3
:103B9C00DB69002B14BF01230023DBB208E0059B7B
:103BAC0003F12802039B1A60059B009A9A67002375
:103BBC00184606B07047000000B58BB00190019814
:103BCC00FFF756FD08900898FFF764FD07900198E1
:103BDC00FFF7BFFD03468DF81B306C4B0393079B1F
:103BEC000493079BDB69002B26D1079B1A6F079B5D
:103BFC005A67079B00221A67079B0022DA66079B0D
:103C0C001B6A002B13D0079B079A1833203292E8BB
:103C1C00030083E80300079B00221A6203AA9DF8A5
:103C2C001B3011461846FEF747FB0346A9E0079BDD
:103C3C0000229A610023A4E0079B9B6F0593059BD0
:103C4C000993079BDB69059A9A4202D9079BDB69AA
:103C5C000993079B9869079B2833099A19460DF01D
:103C6C00A3FE079B1A6F099B1A44079B5A67079B75
:103C7C0000221A67059A099BD21A079BDA66079BE2
:103C8C0003F12802099B1A44079B9A66079B1B6A3F
:103C9C00002B65D0079B079A1833203292E803005B
:103CAC0083E80300079B00221A6254E0079BDA6E3C
:103CBC00079BDB699A4232D3079B9869079B996EE5
:103CCC00079BDB691A460DF06FFE079BDA6E079BAC
:103CDC00DB69D21A079BDA66079B9A6E079BDB6936
:103CEC001A44079B9A66079BDA69079B5A6700215F
:103CFC000198FFF7EBFC079B1B6A002B0BD0079B73
:103D0C00079A1833203292E8030083E80300079BDC
:103D1C0000221A621FE0079B00229A6123E0079B96
:103D2C009869079B996E079BDB6E1A460DF03CFE5B
:103D3C00079BDA6E079B1A67079BDA69079BDB6E9A
:103D4C00D21A079BDA61079B9A69079BDB6E1A44B0
:103D5C00079B9A6107E0079BDB6E002BA6D102E064
:103D6C00079B00229A61079B9B69002B08D003AA32
:103D7C009DF81B3011461846FEF79EFA034600E0EC
:103D8C00002318460BB05DF804FB00BF513B00004C
:103D9C0000B585B0019000910198FFF7B0FC034687
:103DAC001A46009B9B789A4201D1002334E0009B79
:103DBC009B785BB2002B10DA009BDB78002B02D0D7
:103DCC00032B06D007E001210198FFF77FFC0023AD
:103DDC0022E0002320E003231EE0009B9B785BB2D3
:103DEC00002B18DB009BDB78032B10D0032B10DC93
:103DFC00002B02D0012B0AD00BE00198FFF7DCFE60
:103E0C00039000210198FFF761FC039B04E0002361
:103E1C0002E0032300E00623184605B05DF804FB1E
:103E2C0000B585B001900091019B002B04D129496C
:103E3C0040F2DD20FCF7F1FB009B002B04D125495F
:103E4C0040F2DE20FCF7E9FB00230393009B1B7878
:103E5C000E2B35D801A252F823F000BFD33E000040
:103E6C00A53E0000D33E0000D33E0000CD3E000036
:103E7C00AD3E0000B93E0000CD3E0000CD3E00003E
:103E8C00C53E0000CD3E0000D33E0000D33E0000F6
:103E9C00D33E0000D33E00000198FFF743FD13E032
:103EAC0000990198FFF7FCFD03900DE00099019833
:103EBC00FFF76EFF039007E00198FFF733FD03E077
:103ECC000623039300E000BF039B184605B05DF882
:103EDC0004FB00BF503C010010B58AB00390029166
:103EEC00019200930298FFF74FFB03461A46C34B0F
:103EFC001A700298FFF7BCFB0990039B002B04D1AE
:103F0C00BF4940F20F30FCF788FB019B059300235F
:103F1C000693009B0793039B0893089B1B68002B3D
:103F2C0000F00C8140F28E32934200F2D88640F2BF
:103F3C0012329342C0F0D386A3F212337C2B00F2E0
:103F4C00CE8601A252F823F0674100009D4100008B
:103F5C00D541000013420000494200007F4200009E
:103F6C00B7420000ED420000EB4C0000EB4C0000AF
:103F7C00EB4C0000EB4C0000EB4C0000EB4C000059
:103F8C002D43000063430000EB4C0000EB4C0000A1
:103F9C00EB4C0000EB4C0000B5430000EB43000081
:103FAC002B440000EB4C0000EB4C0000EB4C0000F1
:103FBC0075440000AB440000E3440000EB4C0000EF
:103FCC00EB4C0000EB4C0000EB4C00002D450000CE
:103FDC006B4500009F450000EB4C0000EB4C0000D3
:103FEC00EB4C0000EB4C0000EB4C0000EB4C0000E9
:103FFC00DF450000EB4C0000EB4C0000EB4C0000EC
:10400C00EB4C0000294600005D4600009146000084
:10401C00C5460000F9460000EB4C0000EB4C0000DC
:10402C002D4700006147000095470000C94700007C
:10403C0007480000EB4C0000EB4C00003B48000034
:10404C006F480000A3480000D7480000EB4C00006C
:10405C00EB4C00000B4900003F4900007349000085
:10406C00A9490000DF490000EB4C0000EB4C0000BC
:10407C00EB4C0000EB4C0000EB4C0000EB4C000058
:10408C00EB4C0000EB4C0000EB4C0000EB4C000048
:10409C00EB4C0000EB4C0000EB4C0000EB4C000038
:1040AC00EB4C0000EB4C0000EB4C0000EB4C000028
:1040BC00EB4C00004D4A0000814A0000EB4C000024
:1040CC00EB4C0000EB4C0000D54A0000EB4C000020
:1040DC00EB4C0000EB4C0000EB4C00001D4B0000C7
:1040EC00EB4C0000EB4C0000EB4C0000EB4C0000E8
:1040FC00674B0000EB4C0000EB4C0000EB4C00005D
:10410C00EB4C0000EB4C0000EB4C0000A74B00000C
:10411C00DB4B0000EB4C0000EB4C0000EB4C0000C8
:10412C00EB4C0000274C0000EB4C0000EB4C00006B
:10413C00EB4C0000EB4C0000874C0000089B082265
:10414C001A71069A079B9A4206D3089B40F21232C8
:10415C001A60012300F0C7BD00BF059B002B05D0E2
:10416C00089A0599069B0B4412791A70069B013329
:10417C000693089B0B221A71069A079B9A4206D348
:10418C00089B40F213321A60012300F0ACBD00BF53
:10419C00059B002B05D0089A0599069B0B441279B8
:1041AC001A70069B01330693089B099A127D1A71AB
:1041BC00069A079B9A4206D3089B4FF445721A60E5
:1041CC00012300F090BD00BF059B002B05D0089A81
:1041DC000599069B0B4412791A70069B01330693C2
:1041EC00089B02221A71069A079B9A420AD3089BD3
:1041FC0040F215321A60012300F075BD090400204D
:10420C00503C010000BF059B002B05D0089A059976
:10421C00069B0B4412791A70069B01330693089B7C
:10422C0002221A71069A079B9A4206D3089B40F207
:10423C0016321A60012300F056BD00BF059B002BFF
:10424C0005D0089A0599069B0B4412791A70069BA7
:10425C0001330693089B02221A71069A079B9A4215
:10426C0006D3089B40F217321A60012300F03BBDC5
:10427C0000BF059B002B05D0089A0599069B0B44A3
:10428C0012791A70069B01330693089B099A527E89
:10429C001A71069A079B9A4206D3089B4FF44672F2
:1042AC001A60012300F01FBD00BF059B002B05D039
:1042BC00089A0599069B0B4412791A70069B0133D8
:1042CC000693089B00221A71069A079B9A4206D302
:1042DC00089B40F219321A60012300F004BD00BFA4
:1042EC00059B002B05D0089A0599069B0B44127967
:1042FC001A70069B01330693964B00221A7000F03D
:10430C00E1BC089B09221A71069A079B9A4206D3B4
:10431C00089B4FF448721A60012300F0E4BC00BF04
:10432C00059B002B05D0089A0599069B0B44127926
:10433C001A70069B01330693089B04221A71069A85
:10434C00079B9A4206D3089B40F221321A60012344
:10435C0000F0C9BC00BF059B002B05D0089A05993D
:10436C00069B0B4412791A70069B01330693794B0A
:10437C001B7819460298FFF70FF90346764A13602B
:10438C00754B1B68089C1846FFF730F903462371E0
:10439C00069A079B9A4206D3089B40F226321A6073
:1043AC00012300F0A0BC00BF059B002B05D0089A90
:1043BC000599069B0B4412791A70069B01330693E0
:1043CC00089B00221A71069A079B9A4206D3089BF7
:1043DC0040F227321A60012300F085BC00BF059B18
:1043EC00002B05D0089A0599069B0B4412791A707C
:1043FC00069B01330693584B1B68089C1846FFF725
:10440C00FCF803462371069A079B9A4206D3089B35
:10441C004FF44A721A60012300F065BC00BF059B83
:10442C00002B05D0089A0599069B0B4412791A703B
:10443C00069B01330693099B1C7D474B1B68184652
:10444C00FFF7D4F803469C4252D1089B02221A7102
:10445C00069A079B9A4206D3089B4FF44B721A603C
:10446C00012300F040BC00BF059B002B05D0089A2F
:10447C000599069B0B4412791A70069B013306931F
:10448C00089B02221A71069A079B9A4206D3089B34
:10449C0040F22D321A60012300F025BC00BF059BB1
:1044AC00002B05D0089A0599069B0B4412791A70BB
:1044BC00069B01330693089B099A527E1A71069A41
:1044CC00079B9A4206D3089B40F22E321A600123B6
:1044DC0000F009BC00BF059B002B05D0089A05997C
:1044EC00069B0B4412791A70069B0133069362E00B
:1044FC00099B9C7D184B1B681846FFF777F8034601
:10450C009C4253D1089B0A221A71069A079B9A4225
:10451C0005D3089B40F233321A600123E3E300BF5A
:10452C00059B002B05D0089A0599069B0B44127924
:10453C001A70069B01330693089B00221A71069A87
:10454C00079B9A420AD3089B4FF44D721A600123C1
:10455C00C9E300BF0A0400200C04002000BF059B27
:10456C00002B05D0089A0599069B0B4412791A70FA
:10457C00069B01330693089B00221A71069A079B2F
:10458C009A4205D3089B40F235321A600123AAE304
:10459C0000BF059B002B05D0089A0599069B0B4480
:1045AC0012791A70069B0133069304E0904940F28D
:1045BC003930FCF732F8089B00221A71069A079BD7
:1045CC009A4205D3089B4FF44F721A6001238AE379
:1045DC0000BF059B002B05D0089A0599069B0B4440
:1045EC0012791A70069B01330693099B1C7D814B33
:1045FC001B681846FEF7FAFF03469C4240F0F68112
:10460C00089B05221A71069A079B9A4205D3089BB0
:10461C0040F241321A60012365E300BF059B002B79
:10462C0005D0089A0599069B0B4412791A70069BC3
:10463C0001330693089B24221A71069A079B9A420F
:10464C0005D3089B40F242321A6001234BE300BFB2
:10465C00059B002B05D0089A0599069B0B441279F3
:10466C001A70069B01330693089B00221A71069A56
:10467C00079B9A4205D3089B40F243321A600123F0
:10468C0031E300BF059B002B05D0089A0599069BCA
:10469C000B4412791A70069B01330693089B102267
:1046AC001A71069A079B9A4205D3089B4FF45172D4
:1046BC001A60012317E300BF059B002B05D0089A55
:1046CC000599069B0B4412791A70069B01330693CD
:1046DC00089B01221A71069A079B9A4205D3089BE4
:1046EC0040F245321A600123FDE200BF059B002B0E
:1046FC0005D0089A0599069B0B4412791A70069BF3
:10470C0001330693089B05221A71069A079B9A425D
:10471C0005D3089B4FF452721A600123E3E200BFE9
:10472C00059B002B05D0089A0599069B0B44127922
:10473C001A70069B01330693089B24221A71069A61
:10474C00079B9A4205D3089B40F249321A60012319
:10475C00C9E200BF059B002B05D0089A0599069B62
:10476C000B4412791A70069B01330693089B0122A5
:10477C001A71069A079B9A4205D3089B40F24A325B
:10478C001A600123AFE200BF059B002B05D0089AED
:10479C000599069B0B4412791A70069B01330693FC
:1047AC00089B03221A71069A079B9A4205D3089B11
:1047BC0040F24B321A60012395E200BF059B002B9F
:1047CC0005D0089A0599069B0B4412791A70069B22
:1047DC0001330693089B099A927D1A71069A079BDE
:1047EC009A4209D3089B4FF453721A6001237AE260
:1047FC00503C01000C04002000BF059B002B05D091
:10480C00089A0599069B0B4412791A70069B013382
:10481C000693089B04221A71069A079B9A4205D3A9
:10482C00089B40F24F321A6001235CE200BF059BEB
:10483C00002B05D0089A0599069B0B4412791A7027
:10484C00069B01330693089B24221A71069A079B38
:10485C009A4205D3089B4FF454721A60012342E22A
:10486C0000BF059B002B05D0089A0599069B0B44AD
:10487C0012791A70069B01330693089B02221A7157
:10488C00069A079B9A4205D3089B40F251321A6054
:10489C00012328E200BF059B002B05D0089A05993F
:1048AC00069B0B4412791A70069B01330693089BE6
:1048BC0002221A71069A079B9A4205D3089B40F272
:1048CC0052321A6001230EE200BF059B002B05D06B
:1048DC00089A0599069B0B4412791A70069B0133B2
:1048EC000693089B05221A71069A079B9A4205D3D8
:1048FC00089B40F255321A600123F4E100BF059B7E
:10490C00002B05D0089A0599069B0B4412791A7056
:10491C00069B01330693089B24221A71069A079B67
:10492C009A4205D3089B40F256321A600123DAE111
:10493C0000BF059B002B05D0089A0599069B0B44DC
:10494C0012791A70069B01330693089B06221A7182
:10495C00069A079B9A4205D3089B40F257321A607D
:10496C000123C0E100BF059B002B05D0089A0599D7
:10497C00069B0B4412791A70069B01330693089B15
:10498C00099A127D1A71069A079B9A4205D3089BC5
:10499C004FF456721A600123A5E100BF059B002B52
:1049AC0005D0089A0599069B0B4412791A70069B40
:1049BC0001330693089B099A927D1A71069A079BFC
:1049CC009A4205D3089B40F259321A6001238AE1BE
:1049DC0000BF059B002B05D0089A0599069B0B443C
:1049EC0012791A70069B013306930EE0099B9C7D8D
:1049FC009C4B1B681846FEF7F9FD03469C4204D0FD
:104A0C00994940F26230FBF708FE964B1B6818463A
:104A1C00FEF7F3FD03461A46944B1A70944B002292
:104A2C001A7042E1089B07221A71069A079B9A4258
:104A3C0005D3089B40F26D321A60012353E100BF8D
:104A4C00059B002B05D0089A0599069B0B441279FF
:104A5C001A70069B01330693089B05221A71069A5D
:104A6C00079B9A4205D3089B40F26E321A600123D1
:104A7C0039E100BF059B002B05D0089A0599069BD0
:104A8C000B4412791A70069B01330693754B1B6805
:104A9C00774A127811461846FEF7B6FD0346754A5A
:104AAC001360744B1B68089C1846FEF7D3FD034635
:104ABC002371069A079B9A4205D3089B40F27232E7
:104ACC001A6001230FE100BF059B002B05D0089A4B
:104ADC000599069B0B4412791A70069B01330693B9
:104AEC00099B1C7D5F4B1B681846FEF77FFD034638
:104AFC009C421AD1089B03221A71069A079B9A4270
:104B0C0005D3089B40F277321A600123EBE000BF1B
:104B1C00059B002B05D0089A0599069B0B4412792E
:104B2C001A70069B0133069329E0099B9C7D4D4B23
:104B3C001B681846FEF75AFD03469C421AD1089B87
:104B4C0002221A71069A079B9A4205D3089B4FF4CE
:104B5C005F721A600123C6E000BF059B002B05D0D5
:104B6C00089A0599069B0B4412791A70069B01331F
:104B7C00069304E03C494FF46070FBF74EFD089B34
:104B8C0040221A71069A079B9A4205D3089B40F261
:104B9C0083321A600123A6E000BF059B002B05D0D1
:104BAC00089A0599069B0B4412791A70069B0133DF
:104BBC000693089B00221A71069A079B9A4205D30A
:104BCC00089B4FF461721A6001238CE000BF059BB7
:104BDC00002B05D0089A0599069B0B4412791A7084
:104BEC00069B01330693099B1C7D1E4B1B681846C4
:104BFC00FEF7FCFC03469C421CD1099B1A6A089BDD
:104C0C0012781A71069A079B9A4205D3089B40F2B8
:104C1C0089321A60012366E000BF059B002B05D08A
:104C2C00089A0599069B0B4412791A70069B01335E
:104C3C00069334E0099B9C7D0A4B1B681846FEF7D3
:104C4C00D5FC03469C4225D1089B00221A71069A7A
:104C5C00079B9A4210D3089B40F28E321A600123B4
:104C6C0041E000BF0C040020503C01001004002067
:104C7C00110400201404002000BF059B002B05D05C
:104C8C00089A0599069B0B4412791A70069B0133FE
:104C9C00069304E0154940F29230FBF7BEFC144B2E
:104CAC001B780133DAB2124B1A70114B1A78114B74
:104CBC001B789A42FFF4B6AE0F4B1B780133DAB275
:104CCC000D4B1A700C4B1A780C4B1B789A42FFF454
:104CDC0018AB089B40F299321A60012303E0089B41
:104CEC0000221A60002318460AB010BD503C010087
:104CFC0011040020100400200A04002009040020E4
:104D0C0000B58BB0039002910192029B002B04D151
:104D1C00454940F2D630FBF780FC0398FEF7BAFC0D
:104D2C000890089B9B8A03F00103002B01D10823F8
:104D3C0075E0089B9B69002B61D1089BDB6E019A87
:104D4C009A4218D8089B9B6E019A194602980CF04F
:104D5C002BFE089BDA6E019BD21A089BDA66089B25
:104D6C009A6E019B1A44089B9A66089B019A5A6793
:104D7C000023099352E0089B029A9A61089B019ABE
:104D8C00DA610398FEF76DFC03461846FEF7E1FC6A
:104D9C0003468DF81F30254B0593089B0693089B03
:104DAC00DB6E002B1DD0089B9869089B996E089BA5
:104DBC00DB6E1A460CF0F8FD089BDA69089BDB6E7B
:104DCC00D21A089BDA61089B9A69089BDB6E1A441D
:104DDC00089B9A61089BDA6E089B1A67089B002255
:104DEC00DA6605AA9DF81F3011461846FDF764FADD
:104DFC000990099B002B11D1922309930EE0089B7B
:104E0C001B6A002B08D1089B029A1A62089B019A14
:104E1C005A629223099301E011230993099B1846C6
:104E2C000BB05DF804FB00BF503C0100513B00008F
:104E3C0086B001900091019B53E8011F8AB2D8897A
:104E4C0002449889824228BF121A1889824202BFF2
:104E5C00BFF32F8F002307E0C2EA010243E80120D1
:104E6C000028E9D14FF001038DF80F300590029125
:104E7C000492029A009B1A609DF80F30DBB2184620
:104E8C0006B0704784B00190019951E8013FC3EA24
:104E9C00034341E80132002AF7D10392029300BF89
:104EAC0004B0704786B001900091019B53E8021F3B
:104EBC001FFAA1F2D888824202BFBFF32F8F0023C2
:104ECC000DE0D88902449889824228BF121AC1EA9F
:104EDC00024243E802200028E8D14FF001038DF88C
:104EEC000F30059002910492029A009B1A609DF873
:104EFC000F30DBB2184606B0704784B001900199B0
:104F0C0051E8023FC3EA234341E80232002AF7D1B9
:104F1C000392029300BF04B0704784B003900291D7
:104F2C0011461A460B46ADF806301346ADF8043060
:104F3C00029B002B01D10E231FE0BDF80630BDF8FB
:104F4C000420B3FBF2F101FB02F29B1A9BB2002B83
:104F5C0001D0092311E0039B029A1A60039B0022E3
:104F6C005A60039B00229A60039BBDF806209A812D
:104F7C00039BBDF80420DA810023184604B0704767
:104F8C0000B585B001900091009B19460198FFF780
:104F9C004FFF0346002B07D0019B1B68009A128819
:104FAC0013440393039B00E00023184605B05DF8FF
:104FBC0004FB00B583B001900091009B1A88009B04
:104FCC005B889A4204D10198FFF75CFF012300E053
:104FDC000023184603B05DF804FB00B585B00190C2
:104FEC000091009B19460198FFF75CFF0346002BCC
:104FFC0007D0019B1B68009A528813440393039BB0
:10500C0000E00023184605B05DF804FB00B583B042
:10501C0001900091009B1A88009B5B889A4204D1F6
:10502C000198FFF76AFF012300E00023184603B044
:10503C005DF804FB10B487B001900091019B009ABD
:10504C0053E8004F04EA020043E8000191F0000F1E
:10505C00F6D1059404900391059B184607B05DF8B2
:10506C00044B7047014B9B681846704710E000E0FA
:10507C0082B00190054B1B68054AA2FB03239B0CD5
:10508C00019A02FB03F3184602B07047340000206B
:10509C0083DE1B4300B585B00190019BB3F5000F77
:1050AC0003D30B499020FBF7B8FAFFF7DBFF039013
:1050BC0000BFFFF7D7FF0246039B9B1A23F07F43E9
:1050CC00019A9A42F5D800BF00BF05B05DF804FB09
:1050DC00F83C010000B583B001900D4B1B680D4AE4
:1050EC00A2FB03239B0C0C4AB2FBF3F3019A9A42EA
:1050FC0003D90A499B20FBF790FA0198FFF7B8FFF8
:10510C0003461846FFF7C6FF00BF03B05DF804FB6B
:10511C003400002083DE1B43FFFF7F00F83C0100BE
:10512C0000B589B001900091009B0793019B1B78FF
:10513C008DF80C30019B5B680493019B9B68DBB280
:10514C008DF81430019BDB680693074A079B52F8D5
:10515C0023300649079A51F8221003AA10469847A3
:10516C0000BF09B05DF804FB1804002020040020E7
:10517C0000B589B001900091009B0793019B1B78AF
:10518C008DF80C30019B5B680493019B9B68DBB230
:10519C008DF81430019BDB680693074A079B52F885
:1051AC0023300649079A51F8221003AA1046984753
:1051BC0000BF09B05DF804FB180400202004002097
:1051CC0030B58FB0039002910192039B1B780C9326
:1051DC002C490C9B019A41F82320029B1A692A49FD
:1051EC000C9B41F823200C9B012B07D1029B5B7F6E
:1051FC00002B03D125497620FBF70FFA029B5B7F2E
:10520C001946234A0C9B13440A461A70029B04ACA1
:10521C001D460FCD0FC495E80F0084E80F000C9BC2
:10522C00089300230D93039B1B781A46184B9B5C29
:10523C00002B0DD0039B181D019B002B01D0154A90
:10524C0000E0002204AB194600F0D8FA0D9014E0EF
:10525C00039B1B781A460E4B9B5C002B0DD1039BBA
:10526C0003F10C00019B002B01D00B4A00E0002243
:10527C0004AB194601F0A6F80D900D9B18460FB023
:10528C0030BD00BF1804002020040020783D010030
:10529C00280400202D5100007D51000082B00346EF
:1052AC008DF807309DF8073003F01F0205499DF972
:1052BC0007305B09012000FA02F241F8232000BFFD
:1052CC0002B0704700E100E082B0034600918DF817
:1052DC0007309DF90730002B0CDA009BDAB20C4931
:1052EC009DF8073003F00F03043B5201D2B20B447C
:1052FC001A7609E0009BDAB206499DF90730520193
:10530C00D2B20B4483F8002300BF02B0704700BF39
:10531C0000ED00E000E100E082B00190019B03F0A1
:10532C006043B3F1005F0CBF01230023DBB21846CE
:10533C0002B0704782B00190019B1B0B5BB2184608
:10534C0002B0704700B583B003460A468DF80730AB
:10535C0013468DF806309DF80630072B03D9084903
:10536C006B20FBF75AF99DF806209DF90730114682
:10537C001846FFF7A9FF00BF03B05DF804FB00BFA0
:10538C00F83D010000B583B003468DF807309DF958
:10539C0007301846FFF782FF00BF03B05DF804FB2F
:1053AC0084B001900B46ADF80230BDF80230019A82
:1053BC00134400221A60BDF80230019A13441B6892
:1053CC000393039B00BF04B0704782B001900B465F
:1053DC00ADF80230BDF80230019A13441B68002B63
:1053EC0014BF01230023DBB2184602B0704782B011
:1053FC0001900091019BD3F80022009B1A43019B62
:10540C00C3F8002200BF02B0704782B00190009137
:10541C00019BD3F80022009BDB431A40019BC3F88D
:10542C00002200BF02B0704782B001900091019B36
:10543C00009AC3F8042300BF02B0704782B00190F9
:10544C000091019B009AC3F8082300BF02B070477B
:10545C0084B00190019BD3F880340393019B039A91
:10546C00C3F88024039B184604B0704782B00190A7
:10547C00019B0822C3F8002500BF02B0704784B01E
:10548C00039002910192039B029AC3F80C25039B93
:10549C00019AC3F8142500BF04B0704784B0039080
:1054AC0002910192039B029AC3F80825039B019A6F
:1054BC00C3F8102500BF04B0704782B001900B46B2
:1054CC008DF803309DF80330019A134401221A60C1
:1054DC0000BF02B0704782B001900B468DF80330CC
:1054EC0013468DF802309DF803209DF802301343CB
:1054FC00DBB21A46019BC3F86C2500BF02B07047A3
:10550C0082B001900091019B009AC3F8242500BF42
:10551C0002B0704784B0039002910192029A039BEF
:10552C00C3F84425039B019AC3F8482500BF04B077
:10553C00704782B00190019BD3F84C35184602B0ED
:10554C00704784B0039002910192029A039BC3F8B6
:10555C003425039B019AC3F8382500BF04B070476B
:10556C0082B00190019BD3F83C35184602B07047CD
:10557C0000B583B00190019B1B682F2B04D90B49FC
:10558C0040F2CD10FBF749F8019B1B681F2B02D88A
:10559C004FF0A04306E0019B1B6803F01F02019B28
:1055AC001A60034B184603B05DF804FB203E010063
:1055BC000003005000B585B00190084611461A460C
:1055CC0003468DF803300B468DF8023013468DF8E8
:1055DC00013001AB1846FFF7CBFF03909DF8032079
:1055EC009DF802305B001A439DF801309B001A4372
:1055FC009DF818301B0242EA03019DF81C301B0475
:10560C00019A1943039B02F5E07243F8221000BF84
:10561C0005B05DF804FB00B585B003900023019341
:10562C00002300930023012201210398FFF7C2FFFE
:10563C0000BF05B05DF804FB00B585B003900B46C8
:10564C008DF80B309DF80B30002201920022009255
:10565C00002200210398FFF7ADFF00BF05B05DF8F5
:10566C0004FB00B585B0019001AB1846FFF780FF35
:10567C000390019B012202FA03F31946039800F0F0
:10568C0004F800BF05B05DF804FB82B001900091F6
:10569C00019B009AC3F8082500BF02B0704700B503
:1056AC0083B001900091009B1B68B3F1FF3F09D0C0
:1056BC00009B1B681846FFF7D4FF009B1B6818461D
:1056CC00FFF7A9FF009B5B68B3F1FF3F05D0009B80
:1056DC005B6800211846FFF7AFFF019B1A68009B1F
:1056EC009B6919461046FFF70BFF019B1868009B3E
:1056FC00597D009B1B7D1A46FFF7EDFE019B186838
:10570C00009B1968009B5B681A46FFF7B8FE009B6C
:10571C001B7D012B22D1009B9B68B3F1FF3F05D071
:10572C00009B9B6800211846FFF786FF009BDB68F7
:10573C00B3F1FF3F09D0009BDB681846FFF791FFE0
:10574C00009BDB681846FFF766FF019B1868009BFF
:10575C00D968009B9B681A46FFF7A0FE00BF03B0F8
:10576C005DF804FB00B583B001900B468DF8033057
:10577C00019B1B684FF488711846FFF711FE019BC3
:10578C001B684FF490711846FFF70AFE019B1B68CB
:10579C004FF492711846FFF703FE019B1B684FF400
:1057AC00A2711846FFF7FCFD019B1B684FF4AC710E
:1057BC001846FFF7F5FD019B1B680F491846FFF7CC
:1057CC0033FE019B1B681846FFF7B4FD03461A46CF
:1057DC009DF8033019461046FFF7B4FD019B1B687A
:1057EC001846FFF7A7FD03461846FFF7CBFD00BF91
:1057FC0003B05DF804FB00BF1003420000B587B096
:10580C00039002910192029B002B03D12B49CF20D4
:10581C00FAF703FF039B1B791A461346DB0013446C
:10582C009B00274A1344059300230493059B93F88C
:10583C002030002B03D008230493049B3AE0039BF5
:10584C001A68039B1B7919461E4B53F821301946D5
:10585C00104601F0A7F90346002B03D01123049343
:10586C00049B27E002990398FFF719FF059B019A07
:10587C005A60029B1A69059B1A60059B5B68002B9A
:10588C0005D0029B1B7F19460398FFF76BFF039B08
:10589C001B681846FFF7EAFD059B00229A61059BE1
:1058AC000022DA61059B00225A61059B012283F8D4
:1058BC002020049B184607B05DF804FB483E01000D
:1058CC002C040020C43E010000B589B00390029165
:1058DC000192039B1B791A461346DB0013449B0071
:1058EC005B4A13440693069B93F82030012B04D09B
:1058FC00584940F22D10FAF790FE029B002B04D170
:10590C0054494FF49770FAF788FE019B002B04D191
:10591C00504940F22F10FAF780FE039B1B79002BA5
:10592C0003D1019BB3F5803F0CD3039B1B79012B57
:10593C0003D1019BB3F5803F04D346494FF49870D3
:10594C00FAF76BFE0298FFF7E7FC034683F00103BE
:10595C00DBB2002B03D010230793079B73E0039853
:10596C0000F07AF80346002B03D011230793079B12
:10597C0069E0069B019A5A61069B029A9A60002381
:10598C000793039B1B684FF490711846FFF708FDB3
:10599C00039B1B684FF4AC711846FFF701FD039B8A
:1059AC001868069B9968069B5B691A46FFF7B2FD5F
:1059BC00039B1B6808211846FFF77FFD069B5B685D
:1059CC00002B3FD1039B1B684FF490711846FFF7D7
:1059DC00FCFC03468DF81730039B1B684FF4AC712D
:1059EC001846FFF7F2FC03468DF816309DF8173079
:1059FC0083F00103DBB2002B06D09DF8163083F048
:105A0C000103DBB2002BDDD19DF81630002B02D048
:105A1C000F23079313E0039B1B680C211846FFF719
:105A2C004CFD00BF039B1B684FF4AC711846FFF78D
:105A3C00CCFC034683F00103DBB2002BF2D1069BB6
:105A4C0000225A61079B184609B05DF804FB00BFA1
:105A5C002C040020483E010082B00190019B1B7970
:105A6C001946084A0B46DB000B449B0013441433C5
:105A7C001B68002B14BF01230023DBB2184602B0B5
:105A8C00704700BF2C04002000B589B00390029130
:105A9C000192039B1B791A461346DB0013449B00AF
:105AAC008A4A13440593039B1B791946874A0B4674
:105ABC00DB000B449B00134420331B78012B04D0D8
:105ACC0083494FF4C070FAF7A8FD029B002B04D158
